:020000040800F2
:1000000000100020A10D00082D0D00082F0D000884
:1000100000000000000000000000000000000000E0
:10002000000000000000000000000000310D00088A
:100030000000000000000000330D0008350D00082E
:10004000F10D000800000000F10D0008F10D00089E
:10005000F10D0008F10D0008F10D0008F10D000888
:1000600000000000F10D0008F10D0008F10D00087E
:10007000F10D0008F10D0008F10D0008000000006E
:10008000F10D00080000000000000000F10D000864
:1000900000000000F10D0008F10D0008F10D00084E
:1000A00000000000F10D000800000000F10D000844
:1000B0000000000000000000000000000000000040
:1000C00010B5064C2378002B07D1054B002B02D02E
:1000D000044800E000BF0123237010BD040000208D
:1000E000000000003C0E0008084B10B5002B03D0A8
:1000F0000749084800E000BF07480368002B00D10B
:1001000010BD064B002BFBD09847F9E7000000001C
:10011000080000203C0E0008040000200000000041
:10012000002243088B4274D303098B425FD3030A36
:100130008B4244D3030B8B4228D3030C8B420DD349
:10014000FF22090212BA030C8B4202D312120902D7
:1001500065D0030B8B4219D300E0090AC30B8B4215
:1001600001D3CB03C01A5241830B8B4201D38B03C3
:10017000C01A5241430B8B4201D34B03C01A524168
:10018000030B8B4201D30B03C01A5241C30A8B42AB
:1001900001D3CB02C01A5241830A8B4201D38B0296
:1001A000C01A5241430A8B4201D34B02C01A52413A
:1001B000030A8B4201D30B02C01A5241CDD2C309AC
:1001C0008B4201D3CB01C01A524183098B4201D328
:1001D0008B01C01A524143098B4201D34B01C01A13
:1001E000524103098B4201D30B01C01A5241C3088B
:1001F0008B4201D3CB00C01A524183088B4201D3FA
:100200008B00C01A524143088B4201D34B00C01AE5
:100210005241411A00D20146524110467047FFE751
:1002200001B5002000F006F802BDC0460029F7D055
:1002300076E770477047C04610B5040000F074FCC4
:10024000FA218900FFF76CFF00F06AF80022210014
:100250000120404200F032F8002010BD10B5064ADF
:10026000136810210B4313600020FFF7E5FF00F037
:1002700033FD002010BDC04600200240024A136832
:10028000013313607047C04620000020014B1868FE
:100290007047C0462000002030B583B00190FFF7C2
:1002A000F5FF0500019C631C00D00134FFF7EEFF51
:1002B000401BA042FAD303B030BD000070B5002847
:1002C00011DB8308144DC0339B005C59032210409E
:1002D000C000FC3216008640B44389010A408240C7
:1002E00022435A5170BDC0B20F230340083B9B0804
:1002F00006339B00094A944663445D68032210401C
:10030000C000FF2422008240954389010C408440B4
:100310002C435C60E6E7C04600E100E000ED00E051
:1003200001380A4B98420FD8094A50600948036ABD
:100330001B021B0AC02109060B43036200239360C2
:1003400007331360002070470120FCE7FFFFFF0028
:1003500010E000E000ED00E0042805D0054A136835
:1003600004218B4313607047024A136804210B4336
:100370001360F8E710E000E0704710B5FFF7FCFFEE
:1003800010BD0000F0B5C64600B582B000237EE087
:10039000DF080837BF003E5807251D40AD000F2479
:1003A000AC40A6430C69AC40250035433D507EE08F
:1003B000856864462540CE68BE4035438560456803
:1003C0002C004546AC434D682E09012535409D4023
:1003D0002C434460C46865462C408D68BD402C4366
:1003E000C4604C68E40051D5434DAE6901242643F6
:1003F000AE61AD692C400194019C9C08A51CAD0028
:100400003E4EAE5903251D40AD000F27AF40BE4301
:100410009027FF05B84265D0394FB84264D0394FB4
:10042000B84263D0384FB8425AD00527AF403D009C
:1004300035430234A400314EA551344C2568D443D1
:1004400026002E404F68FF0301D515432E002F4D87
:100450002E606D682E0026404F68BF0301D51543FE
:100460002E002A4D6E60AD682E0026404F68FF02B8
:1004700001D515432E00254DAE60ED682C404E6829
:10048000B60201D52A431400204AD46001330A6819
:100490001400DC402CD001249C40A0462240F5D022
:1004A0004D68022D00D173E7122D00D170E7066868
:1004B0005F0003252C00BC40E443A44626404C6862
:1004C0002540BD40354305604D686E1E012E00D8A5
:1004D0006EE7112D00D16BE7122D00D07AE767E7A8
:1004E0000327A3E70027A1E701279FE702279DE74E
:1004F00002B004BC9046F0BD001002400000014074
:100500000004004800080048000C004800040140B6
:10051000002A01D1816270478161FCE770B582B029
:1005200004000368DB0736D5C14B5A680C2313401F
:10053000042B28D0BE4B5A680C231340082B1ED026
:100540006368012B4BD0002B50D1B94B1A68B949C5
:100550000A401A601A68B8490A401A606368002B9A
:100560005CD0FFF793FE0500B14B1B689B0312D4D0
:10057000FFF78CFE401B6428F6D90320EAE1AC4B60
:100580005B68DB03DCD5AA4B1B689B0303D5636860
:10059000002B00D1DBE123689B0762D5A44B5B688D
:1005A0000C221A424CD0A24B5A680C231340082B41
:1005B00042D0E368002B76D09D4A136801210B439B
:1005C0001360FFF763FE0500994B1B689B0761D41E
:1005D000FFF75CFE401B0228F6D90320BAE1944ADB
:1005E000116880235B020B431360B7E7052B09D02A
:1005F0008F4B1A688F490A401A601A688E490A4060
:100600001A60ABE78A4B19688022D2020A431A604B
:100610001968802252020A431A609FE7FFF736FEEC
:100620000500834B1B689B03B5D5FFF72FFE401BCE
:100630006428F6D903208DE17D4B5B68DB03B8D4D9
:100640007B4B1B689B0704D5E368012B01D001207D
:1006500080E177490B68F82293432269D200134363
:100660000B6023681B0744D5E369002B2ED0704A2A
:10067000536A01210B435362FFF708FE05006C4BE0
:100680005B6A9B0735D4FFF701FE401B0228F6D9B1
:1006900003205FE166490B68F82293432269D20088
:1006A00013430B60DDE7624A136801218B4313603B
:1006B000FFF7ECFD05005E4B1B689B07D1D5FFF7EC
:1006C000E5FD401B0228F6D9032043E1584A536A4E
:1006D00001218B435362FFF7D9FD0500544B5B6A40
:1006E0009B0706D5FFF7D2FD401B0228F6D9032051
:1006F00030E123685B0775D54D4BDB69DB002ED4F9
:100700004B4AD169802040050143D161D369034040
:100710000193019B0125494B1B68DB0521D5A3688B
:10072000012B32D0002B36D1414B1A6A01218A436A
:100730001A621A6A03318A431A62A368002B40D0F6
:10074000FFF7A4FD06003A4B1B6A9B0748D4FFF74E
:100750009DFD801B3A4B9842F5D90320FAE0002515
:10076000D9E7364A116880235B000B431360FFF71B
:100770008DFD0600314B1B68DB05D0D4FFF786FDED
:10078000801B6428F6D90320E4E0294A136A01217A
:100790000B431362D1E7052B09D0254B1A6A0121BF
:1007A0008A431A621A6A03318A431A62C5E7204BE8
:1007B0001A6A04210A431A621A6A03390A431A623E
:1007C000BBE7FFF763FD0600194B1B6A9B0707D5C4
:1007D000FFF75CFD801B1A4B9842F5D90320B9E066
:1007E000012D1ED02368DB065AD56369012B2BD05F
:1007F000053349D00E4B5A6B04210A435A635A6B96
:1008000003398A435A63FFF741FD0500084B5B6BD0
:100810009B0745D5FFF73AFD401B0228F6D9032078
:1008200098E0034AD36907490B40D361DAE7C04631
:1008300000100240FFFFFEFFFFFFFBFF00700040C3
:1008400088130000FFFFFFEF444B5A6B04210A435B
:100850005A635A6B03390A435A63FFF717FD0500C1
:100860003E4B5B6B9B0706D4FFF710FD401B022835
:10087000F6D903206EE039494B6BF8229343A26905
:10088000D20013434B630BE0344A536B04218B4378
:100890005363536BF4318B43A169C9000B4353631A
:1008A000236A002B55D02D4A51680C220A40082A91
:1008B00052D0022B12D0294A136829490B401360E9
:1008C000FFF7E4FC0400254B1B689B013DD5FFF7B7
:1008D000DDFC001B0228F6D903203BE01F4A136809
:1008E0001F490B401360FFF7D1FC05001B4B1B6831
:1008F0009B0106D5FFF7CAFC401B0228F6D903204E
:1009000028E0164BDA6A0F218A43E16A0A43DA6269
:100910005A6814490A40A16A606A01430A435A604E
:100920001968802252040A431A60FFF7AFFC0400E2
:100930000A4B1B689B0106D4FFF7A8FC001B02288A
:10094000F6D9032006E0002004E0002002E00120A8
:1009500000E0002002B070BD0120FBE70010024063
:10096000FFFFFFFEFFFFC2FF30B589B004AA154BA1
:10097000180032C832C2110002680A606A46103399
:1009800013CB13C21B6813600F4B5A680C23134020
:10099000082B13D1910C0733194004A8445C0A4971
:1009A000C96A0B406946C95CD30302D40748604357
:1009B00005E00748FFF7B4FB604300E0044809B0D6
:1009C00030BDC046540E00080010024000093D0032
:1009D00000127A0070B505000C004D4B1A68012317
:1009E00013408B420BD24A490B68012293432343A5
:1009F0000B600B681A40944201D0012085E02B68FF
:100A00009B0706D5434A5368F0218B43A9680B43E3
:100A100053602B68DB074CD56B68012B21D0022B70
:100A200025D03C4A1268920700D46FE039494A68E1
:100A30000320824313434B60FFF728FC06006B68DA
:100A4000012B1AD0022B26D0324B5B680C221A42A3
:100A50002FD0FFF71BFC801B2F4B9842F4D90320AB
:100A600053E02C4A12689203E0D401204DE0294A59
:100A700012689201DAD4012047E0264B5A680C2311
:100A80001340042B15D0FFF701FC801B224B98422A
:100A9000F3D9032039E01F4B5A680C231340082B6D
:100AA00007D0FFF7F3FB801B1B4B9842F3D90320C1
:100AB0002BE0174B1A68012313409C420BD21449B8
:100AC0000B680122934323430B600B681A40944246
:100AD00001D0012019E02B685B0706D50D4A536849
:100AE0000E490B40E9680B435360FFF73DFF094B8C
:100AF0005A6812090F231340094AD35CD840094BA6
:100B000018600020FFF798FB002070BD0120FCE773
:100B1000002002400010024088130000FFF8FFFF91
:100B2000740E000800000020014B18687047C04692
:100B300000000020F0B589B0234B59698020C00324
:100B4000014359615A6902400092009A5969802014
:100B50008002014359615A6902400192019A5A691F
:100B60008021C9020A435A615B690B400293029BD0
:100B7000164E002231009020C005FFF7C9FC022765
:100B80000397002404940125059503A91048FFF755
:100B9000F9FB039604950594069403A99020C005DB
:100BA000FFF7F0FB282303930494059503A99020F5
:100BB000C005FFF7E7FB03970494059503A90548D3
:100BC000FFF7E0FB09B0F0BD00100240D7060000BF
:100BD0000014004800040048FEE7000000B591B092
:100BE00002230493013B07930F33089300230C93D4
:100BF00004A8FFF793FC00281ED1072300930023CD
:100C000001930293039300216846FFF7E3FE002857
:100C100016D1FFF789FFFA218900FFF781FAFFF764
:100C20007FFB0420FFF798FB0022002101204042B7
:100C3000FFF744FB11B000BDA1210348FFF7CCFF33
:100C4000AE210148FFF7C8FF8C0E000870B582B0D6
:100C5000FFF704FBFFF7C2FFFFF76CFF00230193D0
:100C60009024E405002201212000FFF751FC80269A
:100C7000B600012231002000FFF74AFC96256D00E6
:100C80002800FFF709FB002204212000FFF740FCA9
:100C9000012201212000FFF73BFC2800FFF7FCFAAE
:100CA000002280212000FFF733FC012204212000D4
:100CB000FFF72EFC2800FFF7EFFA0022310020009A
:100CC000FFF726FC012280212000FFF721FC2800ED
:100CD000FFF7E2FAC2E7000000B583B0124B996952
:100CE00001221143996199690A400092009ADA69D8
:100CF000802149050A43DA61DB690B400193019BBE
:100D00000022002105204042FFF7D8FA00220021EE
:100D100002204042FFF7D2FA002200210120404287
:100D2000FFF7CCFA03B000BD001002407047FEE7A9
:100D30007047704710B5FFF7A1FAFFF71EFB10BD13
:100D4000114B1A6801210A431A605A680F48024081
:100D50005A601A680E4802401A601A680D4802402C
:100D60001A605A680C4802405A60DA6A0F208243BF
:100D7000DA621A6B094802401A635A6B8A435A6353
:100D800000229A607047C046001002400CB8FF086D
:100D9000FFFFF6FEFFFFFBFFFFFFC0FFECFEFFFFC4
:100DA0000D4885460D480E490E4A002302E0D458EE
:100DB000C4500433C4188C42F9D30B4A0B4C0023A3
:100DC00001E013600432A242FBD3FFF7B9FF00F049
:100DD00011F8FFF73BFFFEE70010002000000020A5
:100DE00004000020A40E00080400002024000020BD
:100DF000FEE7000070B500260C4D0D4C641BA410DE
:100E0000A64209D1002600F019F80A4D0A4C641BCD
:100E1000A410A64205D170BDB300EB589847013627
:100E2000EEE7B300EB5898470136F2E79C0E000856
:100E30009C0E00089C0E0008A00E0008F8B5C046E5
:100E4000F8BC08BC9E467047F8B5C046F8BC08BC64
:040E50009E46704703
:100E540002030405060708090A0B0C0D0E0F1010F7
:100E64000102030405060708090A0B0C0D0E0F10F6
:100E74000000000000000000010203040607080946
:100E840000000000010203042E2E2F5372632F6D05
:080E940061696E2E630000008D
:040E9C00E900000861
:040EA000C100000885
:040EA40000127A00BE
:0400000508000DA141
:00000001FF
